:100000002CC050C007C206C24DC04CC04BC04AC035
:1000100049C048C047C073C345C044C043C042C084
:1000200041C00000000000040302010000010204BE
:1000300008102040800402010101010101010101B9
:1000400002020200003900360000003B00380000C8
:10005000003A003700007100830011241FBECFE575
:10006000D2E0DEBFCDBF10E0A0E6B0E0E8EEFAE0FF
:1000700002C005900D92A037B107D9F721E0A0E7A3
:10008000B0E001C01D92A033B207E1F710E0C8E56F
:10009000D0E003C02297FE0117D5C635D107D1F7AE
:1000A00068D416C5ADCF86E890E02ED285EA90E000
:1000B0002BD284EC90E028C240E855E260E070E08A
:1000C00084EC90E0A3D240E855E260E070E085EA7D
:1000D00090E09CD240E855E260E070E086E890E075
:1000E00095C220E041E060E084EC90E061D220E045
:1000F00043E062E085EA90E05BD220E045E064E026
:1001000086E890E055C2CFCF809184009091850021
:10011000883091059CF4FC01EE0FFF1FE059FF4F62
:10012000209180003091810040815181240F351F42
:1001300030938100209380000196EACF8091820065
:10014000909183008F3F910521F01CF08F5F910902
:10015000F9CF9093830080938200109285001092D3
:10016000840084EC90E009D184EC90E062D0809728
:1001700031F184EC90E001D1E0918400F0918500B0
:10018000E930F10594F4EE0FFF1FE059FF4F608155
:1001900084EC90E06FD0809184009091850001966E
:1001A0009093850080938400E7CF10928500109291
:1001B000840062E370E080E090E00FD3D5CF8091BF
:1001C000840090918500893091054CF4FC01EE0F7C
:1001D000FF1FE059FF4F118210820196F4CF109259
:1001E000850010928400089588E090E0909371005B
:1001F0008093700027EC30E03093730020937200FE
:1002000090937500809374009093770080937600AC
:10021000909379008093780090937B0080937A008C
:1002200090937D0080937C0090937F0080937E006C
:100230006BCF209125013091260128173907B9F499
:100240009091E3008091E400981789F0E091E30039
:10025000F0E0EB51FF4F80812091E30030E02F5F11
:100260003F4F2F7333272093E30090E008958FEFE3
:100270009FEF08951F93CF93DF93DC015C968D91E0
:100280009C915D97009749F481E090E013969C93D0
:100290008E93129780E090E03BC05196ED91FC91D7
:1002A000529750962C915097322F30951FB75E96EB
:1002B0004C915E9741FB772770F941FD6095F8946A
:1002C0004081772311F0422B01C043234083EC018E
:1002D0002197F1F748E0508160FF02C0522B01C026
:1002E00053235083EC012197F1F76695415099F71C
:1002F0008081772311F0832301C0822B80831FBF6D
:100300005C968D919C915D970197F1F781E090E06B
:10031000DF91CF911F910895209125013091260101
:100320002817390781F49091E3008091E400981731
:1003300051F0E091E300F0E0EB51FF4F808199270D
:1003400087FD909508958FEF9FEF089520912501E7
:10035000309126012817390769F48091E400209133
:10036000E30090E0805C9F4F821B910960E470E0A5
:1003700044D3089580E090E00895209125013091C4
:1003800026012817390739F48FB7F8941092E40042
:100390001092E3008FBF0895E0912501F0912601AE
:1003A000E817F90769F4A389B4899C918589809538
:1003B00089238C93109226011092250181E00895E3
:1003C00080E00895CF93DF93EC018A8D9B8D892B7C
:1003D000E9F080912501909126018C179D07B1F0DD
:1003E000009709F0D9DF8E8D8E7F8E8F1092E400FA
:1003F0001092E300D0932601C0932501EB89FC897C
:1004000080819D89892B808381E001C080E0DF911C
:10041000CF9108951F920F920FB60F9211242F9330
:100420003F934F935F936F937F938F939F93AF937C
:10043000BF93EF93FF93E0912501F0912601309750
:1004400009F451C0868DA685B785958581FF04C0C6
:100450008C91892329F447C08C91892309F043C0EA
:10046000A389B4899C918589809589238C938689F9
:1004700097890197F1F7208D318DA685B785758510
:1004800058E040E0C9010197F1F7842F90E095957D
:100490008795482F6C91672309F04068515091F778
:1004A000868D81FD40958091E40090E001968F73E8
:1004B00099272091E300281749F0A091E400B0E0CB
:1004C000AB51BF4F4C938093E40003C0868D816095
:1004D000868F828D938D0197F1F7A389B4898C91D2
:1004E0009589892B8C93FF91EF91BF91AF919F914B
:1004F0008F917F916F915F914F913F912F910F90CD
:100500000FBE0F901F90189524E630E0FC01318358
:10051000208342CF1F93CF93DF93EC01162F6E8D74
:100520006695617081E06827812FEDD161E0812FB0
:10053000B1D1812F90E0FC01E35DFF4FE491E88BA6
:10054000FC01E85CFF4FE491F0E0EE0FFF1FE75B7A
:10055000FF4F859194919A8B898BDF91CF911F9159
:1005600008951F93CF93DF93EC01162F60E0812F46
:1005700091D18E8D81FD03C061E0812FC4D11C8794
:10058000812F90E0FC01E35DFF4FE491ED87FC01DA
:10059000E85CFF4FE491F0E0EE0FFF1FED5BFF4FD3
:1005A000859194919F878E87DF91CF911F910895B8
:1005B000FF920F931F93CF93DF93EC01F62E522FF0
:1005C0001B821A8208EE13E020E030E00C831D83CA
:1005D0002E833F8384E690E0998388831F8A1E8A56
:1005E000198E188E1B8E1A8E1D8E1C8E8E8D8E7FF0
:1005F00050FB81F98E8F642FCE018CDF6F2DCE01E1
:10060000DF91CF911F910F91FF90ABCFCF93DF93ED
:10061000EC019A01AB011B8E1A8E198E188E1F8A5F
:100620001E8A60E079E08DE390E01CD2C90124309D
:10063000310520F0B9016350710902C061E070E03A
:100640007D8F6C8FEC85EB3008F055C0B901769545
:1006500067956431710518F06351710902C061E05A
:1006600070E07F8B6E8B069718F0C901059702C06A
:1006700081E090E0998F888FC90163E070E0ACD190
:1006800096958795969587958D30910510F00C97E6
:1006900002C081E090E09B8F8A8F9BB7E83010F416
:1006A00080E101C080E2892B8BBF2C85283028F0A7
:1006B0002B3030F480E490E005C082E390E002C08B
:1006C00080E090E09C8B8B8B283030F481E001C07F
:1006D000880F2A95EAF70AC08AE090E0821B910908
:1006E00091E001C0990F8A95EAF7892F8D8B8C8D47
:1006F0009D8D0197F1F7CE01DF91CF9163CE1F92CF
:100700000F920FB60F9211242F933F938F939F93C5
:10071000AF93BF938091280190912901A0912A0164
:10072000B0912B013091270123E0230F2D3720F4C6
:100730000196A11DB11D05C026E8230F0296A11D3B
:10074000B11D209327018093280190932901A09344
:100750002A01B0932B0180912C0190912D01A09141
:100760002E01B0912F010196A11DB11D80932C0186
:1007700090932D01A0932E01B0932F01BF91AF91C3
:100780009F918F913F912F910F900FBE0F901F90CF
:1007900018953FB7F89480912C0190912D01A0916C
:1007A0002E01B0912F0122B708B600FE05C02F3FE1
:1007B00019F00196A11DB11D3FBF6627782F892F23
:1007C0009A2F620F711D811D911D42E0660F771FE8
:1007D000881F991F4A95D1F70895CF92DF92EF9223
:1007E000FF92CF93DF936B017C01D3DFEB01C11448
:1007F000D104E104F10479F0EED0CBDF6C1B7D0B6A
:10080000683E7340A0F381E0C81AD108E108F108FE
:10081000C851DC4FECCFDF91CF91FF90EF90DF908C
:10082000CF900895789480B7826080BF80B7816050
:1008300080BF83B7826083BF83B7816083BF89B77E
:10084000816089BF1EBC8EB582608EBD8EB5816011
:100850008EBD8FB581608FBD329A319A309A379AAA
:100860000895823099F018F4813069F0089583304A
:1008700019F0843021F008958FB58F7702C08FB5BD
:100880008F7D8FBD089580B78F7702C080B78F7D31
:1008900080BF0895CF93DF9390E0FC01E35DFF4FAD
:1008A0002491FC01E85CFF4F8491882349F190E09A
:1008B000880F991FFC01E15BFF4FA591B491875B05
:1008C0009F4FFC01C591D4919FB7611108C0F89466
:1008D0008C91209582238C93888182230AC0623078
:1008E00051F4F8948C91322F309583238C93888126
:1008F000822B888304C0F8948C91822B8C939FBFA9
:10090000DF91CF9108950F931F93CF93DF931F92A1
:10091000CDB7DEB7282F30E0F901EE5DFF4F8491AF
:10092000F901E35DFF4F1491F901E85CFF4F049179
:100930000023C1F0882319F0698393DF6981E02FD8
:10094000F0E0EE0FFF1FE75BFF4FA591B4919FB75B
:10095000F8948C91611103C01095812301C0812B03
:100960008C939FBF0F90DF91CF911F910F910895AE
:10097000089558DFFDDFA0DBC0E0D0E035DC209734
:10098000E9F33EDBFBCFCF92DF92EF92FF920F9322
:100990001F93CF93DF936C017A01EB01E60EF71EF4
:1009A00000E010E0CE15DF0561F06991D601ED9110
:1009B000FC910190F081E02DC6010995080F191FE7
:1009C000F1CFC801DF91CF911F910F91FF90EF9070
:1009D000DF90CF90089508950024552704C0080E95
:1009E000591F880F991F009729F076956795B8F3DE
:1009F0007105B9F7802D952F089597FB072E16F4F2
:100A0000009406D077FD08D049D007FC05D03EF40D
:100A1000909581959F4F0895709561957F4F0895AA
:100A2000A1E21A2EAA1BBB1BFD010DC0AA1FBB1FF2
:100A3000EE1FFF1FA217B307E407F50720F0A21B64
:100A4000B30BE40BF50B661F771F881F991F1A94D1
:100A500069F760957095809590959B01AC01BD01FB
:100A6000CF010895052E97FB16F400940FD057FD83
:100A700005D0D6DF07FC02D046F408C0509540955B
:100A8000309521953F4F4F4F5F4F0895909580953A
:100A9000709561957F4F8F4F9F4F0895AA1BBB1B89
:100AA00051E107C0AA1FBB1FA617B70710F0A61B6E
:100AB000B70B881F991F5A95A9F780959095BC018F
:100AC000CD010895EE0FFF1F0590F491E02D0994DC
:100AD00010E0C8E5D0E003C0FE01F6DF2296CA357B
:080AE000D107D1F7F894FFCF14
:100AE800000000003A01C304A60119018C01BD01F0
:00000001FF
