:1000000028C04CC04BC04AC049C048C047C046C0C9
:1000100045C044C043C02DC341C040C03FC03EC0E6
:100020003DC00000000000040302010000010204C2
:1000300008102040800402010101010101010101B9
:1000400002020200003B00380000003A00370000C6
:10005000A70111241FBECFE5D2E0DEBFCDBF10E067
:10006000A0E6B0E0ECE3F3E102C005900D92AC39FC
:10007000B107D9F720E0ACE9B0E001C01D92AE3C79
:10008000B207E1F710E0C2E5D0E003C02297FE011D
:1000900021D9C035D107D1F74FD44EC9B1CF20E017
:1000A00042E060E18CEA90E017D260E086E0D5D3D0
:1000B00060E087E0D2D361E08AE0CFC34F925F92E5
:1000C0006F927F92AF92BF92CF92DF92EF92FF92A8
:1000D0000F931F93CF93DF938CEA90E0E0D186E0FB
:1000E00082D32C01662457FC6094762CC301B201A4
:1000F00031D760936400709365008093660090939D
:1001000067001F921F92D1E0DF93C4EFCF93A12C21
:10011000B12C6501EE24EA9413E0F12E00E010E02A
:1001200020E030E0A901C301B201CDD513D760931F
:10013000640070936500809366009093670020E0F0
:1001400030E047E054E4BAD720E030E048EC52E435
:1001500066D6CDD67093A7006093A600882777FD5A
:100160008095982FF7D620E030E048EC52E457D63F
:100170006093A8007093A9008093AA009093AB00AD
:1001800087E031D32C01662457FC6094762CC301A0
:10019000B201E0D66093A2007093A3008093A40004
:1001A0009093A5001F921F92DF93CF9320E030E041
:1001B000A901C301B20187D5CDD66093A200709387
:1001C000A3008093A4009093A50020E030E047E0D6
:1001D00054E474D720E030E048EC52E420D687D6CF
:1001E00070939D0060939C00882777FD8095982FE1
:1001F000B1D620E030E048EC52E411D660939E0086
:1002000070939F008093A0009093A10040E060E075
:100210008CEA90E049D168E670E08CEA90E0D4D3B3
:100220004091A8005091A9006091AA007091AB0084
:1002300022E030E08CEA90E045D56DE670E08CEA93
:1002400090E0C2D341E060E08CEA90E02DD16FE60F
:1002500070E08CEA90E0B8D340919E0050919F00EE
:100260006091A0007091A10022E030E08CEA90E063
:1002700029D56DE670E08CEA90E0A6D3409064004A
:100280005090650060906600709067008DB79EB7D3
:1002900008960FB6F8949EBF0FBE8DBF20E030E0E9
:1002A0004AE753E4C301B201B6D587FF13C020E08B
:1002B00030E044EB52E46091A2007091A300809181
:1002C000A4009091A500F6D6181624F461E08AE007
:1002D000FDD216C020E030E04AE753E4C301B2018A
:1002E000E9D660E087FD14C08AE0F0D240E06BE020
:1002F0008CEA90E0D9D069E770E08CEA90E064D3B2
:1003000041E06BE08CEA90E0CFD064E770E009C098
:100310008AE0DCD240E06BE08CEA90E0C5D06DE78B
:1003200070E08CEA90E050D360E177E280E090E00A
:10033000DF91CF911F910F91FF90EF90DF90CF90C1
:10034000BF90AF907F906F905F904F9000C2CF9220
:10035000EF920F93C12CEE24E39402E023E044E0FB
:1003600065E08CEA90E05BD10F91EF90CF9008951B
:10037000CF93DF93EC0160E08E81A8D281E090E022
:100380000BD261E08E81A2D281E090E005D260E0E4
:100390008E819CD284E690E0DF91CF91FDC1CF9217
:1003A000DF92EF92FF920F931F93CF93DF937C0125
:1003B000C0E0D0E0C62ED12C87010C0F1D1F61E0DC
:1003C000F80187814AD2B6010C2E02C07595679557
:1003D0000A94E2F76170F801878178D22196C430DF
:1003E000D10551F7C701DF91CF911F910F91FF9078
:1003F000EF90DF90CF90BCCFCF92DF92EF92FF9241
:100400000F931F93CF93DF937C01C0E0D0E0C62E03
:10041000D12C87010C0F1D1F61E0F80187811DD2CF
:10042000B6010C2E02C0759567950A94E2F76170CB
:10043000F80187814BD22196C830D10551F7C70109
:10044000DF91CF911F910F91FF90EF90DF90CF90B0
:100450008FCF1F93CF93DF93EC01162F642F8C81E6
:1004600035D28D818F3F11F060E030D28F85612FC2
:1004700084FF05C0CE01DF91CF911F91BDCF70E009
:1004800084E0759567958A95E1F7CE0188DF612F45
:10049000CE01DF91CF911F9182CF40E0DACF61E0B2
:1004A000FCDF80ED97E078C1443008F043E0FC01C8
:1004B0002389421710F04FEF420FFC01E40FF11DAA
:1004C0002489260F2068622FE8CFFC016089262F3F
:1004D0002460208B6C60E1CFCF93DF93EC0142303E
:1004E00018F08F8588608F874B8B1C8A80E48D8BFA
:1004F0006E8B70E0605C7F4F6F8B222329F0413060
:1005000019F48F8584608F8780E593EC45D160E096
:100510008C81DCD160E08E81D9D18D818F3F11F04B
:1005200060E0D4D16F8564FD16C063E0CE0137DF93
:1005300084E991E131D163E0CE0131DF84E991E1D9
:100540002BD163E0CE012BDF86E990E025D162E07C
:10055000CE0125DF11C06062CE019FDF84E991E109
:100560001BD16F856062CE0198DF86E990E014D1DF
:100570006F856062CE0191DF6F856062CE018DDF95
:1005800084E0888BCE01A1DFCE0189DF82E0898BF8
:1005900066E0CE01DF91CF9180CF6F927F928F92F4
:1005A000AF92CF92EF920F931F93CF93DF93CDB77C
:1005B000DEB73C01162F842F5D854E853F859889D7
:1005C000F301848325830683E782C086A186828621
:1005D000538744873587968761E03FD1F301858152
:1005E0008F3F11F061E039D161E0F301868135D1AF
:1005F000112319F0F301178603C080E1F301878707
:1006000020E041E060E1C301DF91CF911F910F91A4
:10061000EF90CF90AF908F907F906F905DCF8F9243
:10062000AF92CF92EF920F93DC0113961C921E9221
:100630001297E6E8F0E0ED93FC931F921F921F9251
:100640001F928C2CAE2CC02EE22E042F2FEF462FA3
:1006500061E0A3DF0F900F900F900F900F91EF903C
:10066000CF90AF908F90089541E0F3DE81E090E06D
:1006700008951F920F920FB60F9211242F933F935C
:100680008F939F93AF93BF938091C5009091C600C5
:10069000A091C700B091C8003091C40020E3230F9F
:1006A0002D3720F44096A11DB11D05C023EB230F6B
:1006B0004196A11DB11D2093C4008093C500909365
:1006C000C600A093C700B093C8008091C900909164
:1006D000CA00A091CB00B091CC000196A11DB11D24
:1006E0008093C9009093CA00A093CB00B093CC0034
:1006F000BF91AF919F918F913F912F910F900FBE1E
:100700000F901F9018953FB7F8948091C900909171
:10071000CA00A091CB00B091CC0022B708B600FE71
:1007200005C02F3F19F00196A11DB11D3FBF6627DF
:10073000782F892F9A2F620F711D811D911D46E020
:10074000660F771F881F991F4A95D1F70895CF929A
:10075000DF92EF92FF92CF93DF936B017C01D3DFA7
:10076000EB01C114D104E104F10479F0EED2CBDF46
:100770006C1B7D0B683E7340A0F381E0C81AD10862
:10078000E108F108C851DC4FECCFDF91CF91FF9029
:10079000EF90DF90CF9008958A31910538F0469719
:1007A00096958795969587950197F1F70895789492
:1007B00080B7826080BF80B7816080BF83B782606E
:1007C00083BF83B7816083BF89B7816089BF1EBC47
:1007D0008EB582608EBD8FB581608FBD3298319AA3
:1007E000309A379A08958E3008F08E5093B183FB7B
:1007F000222720F930E045E0220F331F4A95E1F728
:100800009F7D922B93B987709091CD009295990F0F
:10081000990F907C982B97B9369A3699FECF84B170
:1008200025B190E0922B0895823099F018F4813030
:1008300069F00895833019F0843021F008958FB560
:100840008F7702C08FB58F7D8FBD089580B78F776A
:1008500002C080B78F7D80BF0895CF93DF9390E073
:10086000FC01E35DFF4F2491FC01E85CFF4F8491A4
:10087000882349F190E0880F991FFC01E75BFF4F47
:10088000A591B4918D5B9F4FFC01C591D4919FB709
:10089000611108C0F8948C91209582238C938881F3
:1008A00082230AC0623051F4F8948C91322F309533
:1008B00083238C938881822B888304C0F8948C9145
:1008C000822B8C939FBFDF91CF9108950F931F933D
:1008D000CF93DF931F92CDB7DEB7282F30E0F90119
:1008E000EE5DFF4F8491F901E35DFF4F1491F90133
:1008F000E85CFF4F04910023C1F0882319F069835D
:1009000093DF6981E02FF0E0EE0FFF1FED5BFF4FFB
:10091000A591B4919FB7F8948C91611103C0109583
:10092000812301C0812B8C939FBF0F90DF91CF91CA
:100930001F910F91089508953ADFFDDFB0DBC0E00D
:10094000D0E0BCDB2097E9F35BDBFBCFCF92DF92FB
:10095000EF92FF920F931F93CF93DF936C017A0175
:10096000EB01E60EF71E00E010E0CE15DF0561F0AA
:100970006991D601ED91FC910190F081E02DC601C5
:100980000995080F191FF1CFC801DF91CF911F9171
:100990000F91FF90EF90DF90CF9008956115710552
:1009A00081F0DB010D900020E9F7AD0141505109C4
:1009B000461B570BDC01ED91FC910280F381E02D89
:1009C000099480E090E00895E9CFDC01ED91FC917D
:1009D0000190F081E02D09948F929F92AF92BF9287
:1009E000CF92DF92EF92FF920F931F93CF93DF93FB
:1009F000CDB7DEB7A1970FB6F894DEBF0FBECDBF5F
:100A00007C01C42EE52FCB01D22E19A221E02D1599
:100A100010F02AE0D22E8E010F5D1F4F8D2C912CED
:100A2000A12CB12C6C2D7E2FA5019401BFD38D2D4F
:100A3000622FB3D3C81A8C2D015011098A3014F4D7
:100A4000805D01C0895CF801808321153105410575
:100A5000510521F0C22EE32FCA01E4CFB801C7012E
:100A60009DDFA1960FB6F894DEBF0FBECDBFDF911C
:100A7000CF911F910F91FF90EF90DF90CF90BF909B
:100A8000AF909F908F900895CF92DF92EF92FF9258
:100A90000F931F93CF93DF93EC016A017B01211524
:100AA000310579F4E881F9810190F081E02D642F1E
:100AB000DF91CF911F910F91FF90EF90DF90CF903A
:100AC00009942A303105D9F477FF18C06DE27DDF33
:100AD0008C0144275527BA014C195D096E097F091D
:100AE0002AE0CE0179DF800F911FDF91CF911F9116
:100AF0000F91FF90EF90DF90CF9008952AE0B7011B
:100B0000A601CE01DF91CF911F910F91FF90EF9041
:100B1000DF90CF9061CF4F925F926F927F928F92D2
:100B20009F92AF92BF92CF92DF92EF92FF920F937C
:100B30001F93CF93DF93EC016A017B01B22E9A01E0
:100B4000AB01C701B60125D3882319F06DE870E029
:100B500024C026013701E89477F82FEF3FEF4FE7E5
:100B60005FE7C301B20115D381110CC02FEF3FEF36
:100B70004FE75FE7C301B2014ED118161CF461E9DB
:100B800070E00BC02FEF3FEF4FE75FE4C701B60106
:100B900091D21816A4F465E970E0CE01DF91CF91EF
:100BA0001F910F91FF90EF90DF90CF90BF90AF908B
:100BB0009F908F907F906F905F904F90EFCE2FEF30
:100BC0003FEF4FE75FECC701B60125D187FDE3CFCB
:100BD00020E030E0A901C701B6011DD187FF09C09F
:100BE0006DE2CE01F2DE8C01F7FAF094F7F8F094A2
:100BF00002C000E010E0A12C60E070E080E09FE324
:100C0000AB1439F020E030E040E251E408D1A39485
:100C1000F7CF9B01AC01C701B60199D06B017C01F4
:100C20006BD12B013C0194D19B01AC01C701B601F2
:100C30008DD06B017C012AE0B301A201CE01CCDE94
:100C4000080F191FBB2031F069E970E0CE01A6DE64
:100C5000080F191F7B2C772019F120E030E040E2CB
:100C600051E4C701B6012AD26B017C0140D14B018E
:100C7000AA2497FCA094BA2C2AE030E0B501A40184
:100C8000CE0102DF080F191FC501B40163D19B011A
:100C9000AC01C701B6015AD06B017C017A94DBCF5D
:100CA000C801DF91CF911F910F91FF90EF90DF90DE
:100CB000CF90BF90AF909F908F907F906F905F90FC
:100CC0004F90089528CF4F925F926F927F92AF928C
:100CD000BF92CF92DF92EF92FF920F931F93CF9329
:100CE000DF93CDB7DEB729013A0129893A894B89CB
:100CF0005C8964197509860997092A193B094C0909
:100D00005D0992D2A32FF42FE52FE418F508060908
:100D10001709622F7A2F8F2F9E2FA801970168D273
:100D20002A0D3B1D4C1D5D1DCA01B901DF91CF91FC
:100D30001F910F91FF90EF90DF90CF90BF90AF90F9
:100D40007F906F905F904F90089508955058BB2703
:100D5000AA270ED075C166D130F06BD120F031F4E6
:100D60009F3F11F41EF45BC10EF4E095E7FB51C107
:100D7000E92F77D180F3BA176207730784079507C5
:100D800018F071F49EF58FC10EF4E0950B2EBA2F7A
:100D9000A02D0B01B90190010C01CA01A001112481
:100DA000FF27591B99F0593F50F4503E68F11A162D
:100DB000F040A22F232F342F4427585FF3CF4695BE
:100DC00037952795A795F0405395C9F77EF41F16E0
:100DD000BA0B620B730B840BBAF09150A1F0FF0FAA
:100DE000BB1F661F771F881FC2F70EC0BA0F621F96
:100DF000731F841F48F4879577956795B795F79586
:100E00009E3F08F0B3CF9395880F08F09927EE0F17
:100E1000979587950895D9D008F481E008950CD06E
:100E20000FC107D140F0FED030F021F45F3F19F040
:100E3000F0C0511139C1F3C014D198F39923C9F30B
:100E40005523B1F3951B550BBB27AA2762177307D0
:100E5000840738F09F5F5F4F220F331F441FAA1F84
:100E6000A9F333D00E2E3AF0E0E830D09150504044
:100E7000E695001CCAF729D0FE2F27D0660F771FF2
:100E8000881FBB1F261737074807AB07B0E809F0D4
:100E9000BB0B802DBF01FF2793585F4F2AF09E3F69
:100EA000510568F0B6C000C15F3FECF3983EDCF33B
:100EB000869577956795B795F7959F5FC9F7880FE2
:100EC000911D9695879597F90895E1E0660F771F34
:100ED000881FBB1F621773078407BA0720F0621BC5
:100EE000730B840BBA0BEE1F88F7E095089504D0BE
:100EF0006894B111D9C00895BCD088F09F5790F084
:100F0000B92F9927B751A0F0D1F0660F771F881F2E
:100F1000991F1AF0BA95C9F712C0B13081F0C3D049
:100F2000B1E00895C0C0672F782F8827B85F39F0E7
:100F3000B93FCCF3869577956795B395D9F73EF48D
:100F400090958095709561957F4F8F4F9F4F089535
:100F5000E89409C097FB3EF4909580957095619553
:100F60007F4F8F4F9F4F9923A9F0F92F96E9BB2709
:100F70009395F695879577956795B795F111F8CF85
:100F8000FAF4BB0F11F460FF1BC06F5F7F4F8F4FF0
:100F90009F4F16C0882311F096E911C0772321F0E6
:100FA0009EE8872F762F05C0662371F096E8862F7E
:100FB00070E060E02AF09A95660F771F881FDAF7D5
:100FC000880F9695879597F90895990F0008550F02
:100FD000AA0BE0E8FEEF16161706E807F907C0F0BF
:100FE00012161306E407F50798F0621B730B840BC7
:100FF000950B39F40A2661F0232B242B252B21F4A1
:1010000008950A2609F4A140A6958FEF811D811D40
:10101000089597F99F6780E870E060E008959FEF7A
:1010200080EC089500240A9416161706180609067F
:10103000089500240A94121613061406050608954E
:10104000092E0394000C11F4882352F0BB0F40F4D6
:10105000BF2B11F460FF04C06F5F7F4F8F4F9F4F16
:10106000089557FD9058440F551F59F05F3F71F098
:101070004795880F97FB991F61F09F3F79F08795FF
:101080000895121613061406551FF2CF4695F1DF88
:1010900008C0161617061806991FF1CF8695710518
:1010A000610508940895E894BB2766277727CB014C
:1010B00097F908958ADF08F48FEF08950AD0C0CF1A
:1010C000B1DF28F0B6DF18F0952309F0A2CFA7CF43
:1010D000EBCFC7DFA8F39923D9F35523C9F3950FB5
:1010E00050E0551FAA27EE27FF27BB2700240894AE
:1010F000679520F4E20FF31FB41F0A1E220F331F5F
:10110000441FAA1F6695A9F7779530F4F30FB41F13
:101110000A1E121E08F46395330F441FAA1F221FD4
:10112000769599F7879520F4B40F0A1E121E631F57
:10113000440FAA1F221F331F8695A9F7862F712DF2
:10114000602D11249F5750408AF0E1F088234AF027
:10115000EE0FFF1FBB1F661F771F881F9150504067
:10116000A9F79E3F510570F054CF9ECF5F3FECF33F
:10117000983EDCF3869577956795B795F795E79553
:101180009F5FC1F7FE2B880F911D9695879597F964
:1011900008951BDF880B990B0895002480FD060E2F
:1011A000660F11F08695D1F7802D0895A1E21A2ED1
:1011B000AA1BBB1BFD010DC0AA1FBB1FEE1FFF1FFB
:1011C000A217B307E407F50720F0A21BB30BE40B4B
:1011D000F50B661F771F881F991F1A9469F7609592
:1011E0007095809590959B01AC01BD01CF0108954C
:1011F000052E97FB16F400940FD057FD05D0D6DFCF
:1012000007FC02D046F408C05095409530952195D2
:101210003F4F4F4F5F4F0895909580957095619522
:101220007F4F8F4F9F4F089568940013E894A0E07C
:10123000B0E0ECE1F9E01DC0EFEFE7F959016A0118
:101240005E23550FEE08FE2C87019B01AC019E2307
:10125000990F660B762FCB0141D0CDB7DEB7EAE010
:1012600024C02F923F924F925F926F927F928F9203
:101270009F92AF92BF92CF92DF92EF92FF920F9325
:101280001F93CF93DF93CDB7DEB7CA1BDB0B0FB62F
:10129000F894DEBF0FBECDBF09942A8839884888EC
:1012A0005F846E847D848C849B84AA84B984C88482
:1012B000DF80EE80FD800C811B81AA81B981CE0F79
:1012C000D11D0FB6F894DEBF0FBECDBFED0108955E
:1012D000EE0FFF1F0590F491E02D0994DF93CF935B
:1012E0009F92A0E49A2E0024D001E001F00116950F
:1012F0000795F794E794D794C794B794A79448F4C4
:101300001068A20FB31FC41FD51FE61FF71F081ECA
:10131000191E220F331F441F551F661F771F881F7A
:10132000991F9A9421F79D01AE01BF01C0011124BC
:0C1330009F90CF91DF910895F894FFCFBB
:10133C00010000000000A0404241543A0056005009
:10134C00414E3A0043485247004E4F5400534C45CF
:10135C005000000000003403A6040D0A006E616EFC
:0C136C0000696E66006F7666002E0000BF
:00000001FF
